:100000000C945D000C9485000C9485000C94850084
:100010000C9485000C9485000C9485000C9485004C
:100020000C9485000C9485000C9485000C9485003C
:100030000C9485000C9485000C9485000C9485002C
:100040000C94FA010C9485000C946A020C944402FE
:100050000C9485000C9485000C9485000C9485000C
:100060000C9485000C9485000000000024002700FB
:100070002A0000000000250028002B0004040404CE
:100080000404040402020202020203030303030342
:10009000010204081020408001020408102001021F
:1000A00004081020000000080002010000030407FB
:1000B0000000000000000000210411241FBECFEF4B
:1000C000D8E0DEBFCDBF11E0A0E0B1E0EEEBF8E09C
:1000D00002C005900D92AC36B107D9F722E0ACE62C
:1000E000B1E001C01D92AE31B207E1F710E0CDE5FD
:1000F000D0E004C02197FE010E944E04CC35D10708
:10010000C9F70E949C020C945D040C94000090E0DE
:10011000FC01EC55FF4F2491FC01E057FF4F349157
:10012000FC01E458FF4FE491EE23C9F0222339F09B
:10013000233001F1A8F4213019F1223029F1F0E047
:10014000EE0FFF1FEE58FF4FA591B4918FB7F894B3
:10015000EC91611126C030953E233C938FBF0895EA
:100160002730A9F02830C9F0243049F78091800069
:100170008F7D03C0809180008F7780938000DFCFD8
:1001800084B58F7784BDDBCF84B58F7DFBCF809125
:10019000B0008F778093B000D2CF8091B0008F7D78
:1001A000F9CF3E2BDACFAF92BF92CF92DF92EF9290
:1001B000FF920F931F93CF93DF936C017B018B0111
:1001C000040F151FEB015E01AE18BF08C017D10761
:1001D00059F06991D601ED91FC910190F081E02DEB
:1001E000C6010995892B79F7C501DF91CF911F9140
:1001F0000F91FF90EF90DF90CF90BF90AF90089558
:10020000FC01538D448D252F30E0842F90E0821B1C
:10021000930B541710F0CF96089501970895FC01A1
:10022000918D828D981761F0A28DAE0FBF2FB11DF9
:100230005D968C91928D9F5F9F73928F90E0089551
:100240008FEF9FEF0895FC01918D828D981731F00B
:10025000828DE80FF11D858D90E008958FEF9FEF5F
:100260000895FC01918D228D892F90E0805C9F4F35
:10027000821B91098F73992708958DE691E00E9462
:10028000310121E0892B09F420E0822F089580E0DC
:1002900090E0892B29F00E943D0181110C9400000F
:1002A0000895FC01A48DA80FB92FB11DA35ABF4F0B
:1002B0002C91848D90E001968F739927848FA68965
:1002C000B7892C93A089B1898C91837080648C93B9
:1002D000938D848D981306C00288F389E02D808168
:1002E0008F7D80830895EF92FF920F931F93CF939A
:1002F000DF93EC0181E0888F9B8D8C8D98131AC061
:10030000E889F989808185FF15C09FB7F894EE8947
:10031000FF896083E889F9898081837080648083A4
:100320009FBF81E090E0DF91CF911F910F91FF90EF
:10033000EF900895F62E0B8D10E00F5F1F4F0F7397
:100340001127E02E8C8D8E110CC00FB607FCFACF52
:10035000E889F989808185FFF5CFCE010E9451019E
:10036000F1CFEB8DEC0FFD2FF11DE35AFF4FF08223
:100370009FB7F8940B8FEA89FB8980818062CFCF89
:10038000CF93DF93EC01888D8823B9F0AA89BB89CC
:10039000E889F9898C9185FD03C0808186FD0DC0B7
:1003A0000FB607FCF7CF8C9185FFF2CF808185FFD8
:1003B000EDCFCE010E945101E9CFDF91CF91089599
:1003C00060E086E00E94870060E087E00C94870090
:1003D0000E94E00161E082E00E94870061E084E029
:1003E0000E94870061E086E00E94870061E087E06C
:1003F0000C9487001F920F920FB60F9211242F9327
:100400003F938F939F93AF93BF9380911A029091E4
:100410001B02A0911C02B0911D023091190223E031
:10042000230F2D3758F50196A11DB11D20931902F8
:1004300080931A0290931B02A0931C02B0931D029A
:100440008091150290911602A0911702B0911802A6
:100450000196A11DB11D8093150290931602A093E1
:100460001702B0931802BF91AF919F918F913F9166
:100470002F910F900FBE0F901F90189526E8230F15
:100480000296A11DB11DD2CF1F920F920FB60F92EF
:1004900011242F933F934F935F936F937F938F9389
:1004A0009F93AF93BF93EF93FF938DE691E00E94EC
:1004B0005101FF91EF91BF91AF919F918F917F91EA
:1004C0006F915F914F913F912F910F900FBE0F90C1
:1004D0001F9018951F920F920FB60F9211242F9311
:1004E0008F939F93EF93FF93E0917D01F0917E01B5
:1004F0008081E0918301F091840182FD1BC0908195
:10050000809186018F5F8F7320918701821741F060
:10051000E0918601F0E0E359FE4F958F80938601CC
:10052000FF91EF919F918F912F910F900FBE0F90A0
:100530001F9018958081F4CF789484B5826084BD33
:1005400084B5816084BD85B5826085BD85B58160D7
:1005500085BD80916E00816080936E001092810055
:100560008091810082608093810080918100816010
:1005700080938100809180008160809380008091D1
:10058000B10084608093B1008091B000816080935D
:10059000B00080917A00846080937A0080917A0024
:1005A000826080937A0080917A00816080937A00E3
:1005B00080917A00806880937A001092C100E09167
:1005C0007D01F0917E0182E08083E0917901F091DC
:1005D0007A011082E0917B01F0917C018FEC8083A5
:1005E00010928501E0918101F091820186E0808383
:1005F000E0917F01F0918001808180618083E091B2
:100600007F01F0918001808188608083E0917F018B
:10061000F0918001808180688083E0917F01F0917A
:10062000800180818F7D8083A2E1B1E081E0AA31E9
:10063000B80701F18D9190E0FC01E057FF4F249144
:1006400084589F4FFC018491882381F390E0880FA8
:10065000991FFC01E859FF4FC591D491FC01EE5858
:10066000FF4F859194918FB7F894E881E22BE8834E
:100670008FBFDCCF0E94E80161E086E00E94870026
:1006800061E087E00E94870061E088E00E948700C7
:1006900060E089E00E948700C0E0D0E011E009E05E
:1006A0008DE691E00E94310120911402181619067E
:1006B000F4F421111FC08DE691E00E940F0190918A
:1006C0006C01E92FF0E0E65FFD4F8D3051F0808343
:1006D0009F5F9A3018F000936C01E2CF90936C0109
:1006E000DFCF108210926C0110931402D9CF222315
:1006F00009F49CC06AE171E08AE092E00E9454042F
:10070000892B69F440E250E060E271E08DE691E00F
:100710000E94D3006DE08DE691E00E94730161E4D8
:1007200071E08AE092E00E945404892B69F447E06A
:1007300050E065E471E08DE691E00E94D3006DE049
:100740008DE691E00E9473016DE471E08AE092E031
:100750000E945404892B91F40E94E00161E082E040
:100760000E94870061E085E00E94870061E086E0EA
:100770000E94870060E087E00E94870061E571E0E9
:100780008AE092E00E945404892B91F40E94E001D7
:1007900061E083E00E94870061E084E00E948700BE
:1007A00060E086E00E94870061E087E00E948700A9
:1007B00065E571E08AE092E00E945404892B41F4DF
:1007C00061E088E00E94870060E089E00E94870085
:1007D00069E571E08AE092E00E945404892B41F4BB
:1007E00060E088E00E94870061E089E00E94870065
:1007F0006DE571E08AE092E00E945404892B11F4C7
:100800000E94E00162E671E08AE092E00E945404F6
:10081000892B41F067E671E08AE092E00E9454047F
:10082000892B11F40E94E80110921402209709F418
:1008300037CF0E943D01882309F432CF0E94000087
:100840002FCFEDE6F1E01382128288EE93E0A0E074
:10085000B0E084839583A683B78384E091E091839D
:10086000808385EC90E09587848784EC90E097877F
:10087000868780EC90E0918B808B81EC90E0938B6D
:10088000828B82EC90E0958B848B86EC90E0978B4A
:10089000868B118E128E138E148E0895EE0FFF1F0D
:1008A0000590F491E02D0994FB01DC018D910190FC
:0E08B00080190110D9F3990B0895F894FFCF29
:1008BE00000000007301D3000001C00131010F01DF
:1008CE00230102030405060708093F4E414D45006A
:1008DE004E414D4520534F3252204D494E49202D09
:1008EE0020594F334845582028432920323032357D
:1008FE00003F4657004657322E302E3100525831A7
:10090E00005258320054583100545832004D55544C
:0C091E004500525831530052583253002B
:00000001FF
